:020000040800F2
:10000000101100203D280008B5040008B7040008BE
:10001000BB040008BF040008C3040008000000007F
:10002000000000000000000000000000C7040008FD
:10003000C904000800000000CB040008F704000811
:10004000572800085728000857280008830500088B
:100050005728000857280008572800085728000884
:100060005728000857280008572800085728000874
:100070005728000857280008572800085728000864
:1000800057280008572800082105000857280008AD
:100090005728000857280008572800085728000844
:1000A0005728000857280008572800085728000834
:1000B0005728000857280008572800085728000824
:1000C0005728000857280008572800085728000814
:1000D000572800085D0F0008572800085728000817
:1000E00057280008572800085728000857280008F4
:1000F00057280008572800085728000857280008E4
:100100005728000857280008CD190008572800086C
:100110005728000857280008CD0400085728000871
:1001200057280008572800085728000857280008B3
:1001300000F002F800F07BF80AA090E8000C82447E
:100140008344AAF10107DA4501D100F070F8AFF25B
:10015000090EBAE80F0013F0010F18BFFB1A43F0A5
:1001600001031847547C0000747C00000A444FF0DF
:10017000000C10F8013B13F0070408BF10F8014B06
:100180001D1108BF10F8015B641E05D010F8016B4B
:10019000641E01F8016BF9D113F0080F1EBF10F8AF
:1001A000014BAD1C0C1B09D16D1E58BF01F801CBD2
:1001B000FAD505E014F8016B01F8016B6D1EF9D555
:1001C0009142D6D37047000000230024002500266A
:1001D000103A28BF78C1FBD8520728BF30C148BFAA
:1001E0000B607047662906F0EB87642904F02A84C7
:1001F000732905F08A80002070471FB59DE8030031
:1002000005F054FE05F0B2F804000020002106F0CD
:1002100075FC401C60600020002106F059FCE06085
:1002200005F0DEF91FBD10B505F043FA10BD05F06D
:10023000ABFA1146FFF7E1FF00F01BF805F098FD5F
:1002400003B4FFF7F0FF03BC05F0C2FF704800786D
:10025000401C6F49087000206E49C8716C480078D6
:10026000022805DD00206A49087001206949C8712B
:1002700070471CB501F032F900F0B4FD00F01CFE2F
:1002800001F09CFB01F094F901F040FE01F05CFFED
:1002900000F078FF01F0A6FD01F0F1F800F0A8FEF3
:1002A00001F0C0F900F011FD00F089FB5A4801F09F
:1002B0009DFF01205749887100200872202057496E
:1002C0000870A4E05648007830B15548007801F035
:1002D00046FC002052490870524800780A28F0DB9A
:1002E00000205049087050480078401C4E49087062
:1002F00001F023F84D48006801280BD104F006FAFC
:100300004B49086044494A48006801F0ACFF0020AE
:100310004649086044480078192804DB0020424917
:100320000870FFF793FF43480078401C414908706C
:100330000846007864286ADB0020087001F0A1FA02
:100340003D48006880F480703B4908603B48006885
:1003500080F0040039490860394801F0B9F90128F2
:1003600052D13749487806F0B9FC8046354A364BB9
:1003700006F0C8FC04460D463149087806F0AEFC8C
:10038000064622462B4606F001FC824606F0CCFBD0
:100390002E4908600846006806F09CFE2CA2CDE9B4
:1003A000000106212C4804F009FB2549C87806F015
:1003B00095FC0646234A244B06F0A4FC04460D4651
:1003C0001F49887806F08AFC804622462B4606F0B4
:1003D000DDFB824606F0A8FB20490860084600685D
:1003E00006F078FE1AA2CDE9000106211C4804F0AF
:1003F000E5FA1348C0780090114883784278017874
:1004000018A004F0CFFA02E025A004F0CBFA59E7D7
:100410005D00002050080020000000203F00002068
:100420005B0700203C000020400000206007002007
:10043000480000203D0000200C0801400C14014041
:10044000580000209A9999999999B93F5000002035
:10045000252E326600000000C00800205400002055
:10046000CA0800200D0AB6C1C8A14448543131B3AE
:10047000C9B9A6210D0A0D0ACAAAB6C8CEAA256412
:100480002E256420A3A5524820A3ACCEC2B6C8CE68
:10049000AA2025642E2564A1E6200D0A0000000094
:1004A00052656164204448543131204552524F52C4
:1004B000210D0A00704700BFFEE700BFFEE700BF46
:1004C000FEE700BFFEE770477047704710B5012197
:1004D000384803F0BEFE68B137480078401C364902
:1004E000087036480068401C3449086001213148D2
:1004F00003F0C0FE10BD10B501F046F82E4800789C
:10050000401C2D4908702E480088401C2C4908804A
:1005100008460088B0F57A7F01DD0020088010BD14
:1005200010B54FF40871274804F0B8F8012827D116
:10053000244803F0C9FF2449088024480078401C5F
:10054000224908700846007814280CDC20480088EE
:100550001D49098808441E4908804FF4087119484C
:1005600004F0AEF80CE00020184908701848008824
:10057000142190FBF1F017490880002014490880ED
:1005800010BD10B5012004F02BF938B1012004F0A2
:1005900037F901201049086004F0F4F8022004F053
:1005A0001FF910B101200D490860032004F028F95B
:1005B00010BD0000001000403C000020380000206A
:1005C0004C000020002401405C0700206200002055
:1005D0005E0000206000002060070020640700200B
:1005E0000CB50020019000906C48006840F4803009
:1005F0006A49086000BF6948006800F40030009054
:100600000198401C0190009818B90198B0F5A06FAE
:10061000F1D16248006800F4003010B10120009070
:1006200001E0002000900098012843D15C48006858
:1006300040F010005A4908600846006820F00300A6
:1006400008600846006840F00200086053484068AF
:10065000524948600846406848600846406840F48F
:10066000806048600846406820F47C104860084676
:10067000406840F4E81048600846006840F0807028
:10068000086000BF4548006800F000700028F9D0FD
:100690004248406820F003004049486008464068EE
:1006A00040F00200486000BF3C48406800F00C0089
:1006B0000828F9D10CBD10B5FFF792FF10BD10B599
:1006C0003648006840F00100344908600846406838
:1006D00034490840314948600846006832490840BA
:1006E0002E4908600846006820F48020086008460B
:1006F000406820F4FE0048604FF41F008860FFF758
:10070000DAFF4FF000602949086010BD10B50021E4
:1007100000200022214B5B6803F00C0121B1042969
:1007200006D0082928D107E0214B224C236027E07E
:100730001F4B204C236023E0184B5B6803F47010C0
:10074000164B5B6803F48032022303EB904022B91E
:10075000194B4343174C23600DE0104B5B6803F4C7
:10076000003323B1144B4343124C236003E0104B7E
:100770004343104C236003E00D4B0E4C236000BF3D
:1007800000BF064B5B68C3F303130C4CE15C094BE1
:100790001B68CB40074C236010BD000000100240D6
:1007A000002002400000FFF8FFFFF6FE08ED00E029
:1007B00000127A006400002000093D00680000205B
:1007C00010B54FF40051F94802F0D3F94FF400414D
:1007D000F64802F0CEF94FF40041F44802F0CBF9AC
:1007E0004FF40051F14802F0C6F910BD10B54FF4B6
:1007F0000051EE4802F0BDF94FF40041EB4802F021
:10080000BAF94FF40041E94802F0B3F910BD10B550
:100810004FF40051E54802F0ACF94FF40051E348C1
:1008200002F0A9F910BD2DE9F04105462C464FF420
:100830000051DE4802F09FF900261CE0274607F031
:100840008007802F04D13902D84802F092F904E0E1
:100850004FF40041D54802F08EF96006040E4FF4C3
:100860000051D24802F085F94FF40051CF4802F010
:1008700082F9701CC6B2082EE0DBBDE8F08110B52D
:100880000446FFF79DFF7820FFF7CDFFFFF7BFFF7E
:100890000020FFF7C8FFFFF7BAFF2046FFF7C3FFAE
:1008A000FFF7B5FFFFF7A2FF10BD10B50446FFF735
:1008B00087FF7820FFF7B7FFFFF7A9FF4020FFF77A
:1008C000B2FFFFF7A4FF2046FFF7ADFFFFF79FFF42
:1008D000FFF78CFF10BD70B504460D461DB1E0B2A8
:1008E000FFF7E3FF02E0E0B2FFF7C9FF70BD70B5AC
:1008F0000646002418E004F1B0000021FFF7EBFFEA
:1009000000210846FFF7E7FF00211020FFF7E3FF73
:10091000002505E001213046FFF7DDFF681CC5B268
:10092000802DF7DB601CC4B2082CE4DB70BD06E050
:1009300041F6650100E0491E0029FCD1401E002857
:10094000F6D17047014605E0002001E0421CD0B21C
:100950007B28FBDB0A1EA1F10101F5D1704770B5C0
:1009600004460D4605F1B0000021FFF7B4FF102149
:1009700041EA14100021FFF7AEFF04F00F00002140
:10098000FFF7A9FF70BD10B500218D20FFF7A3FF71
:1009900000211420FFF79FFF0021AF20FFF79BFFEE
:1009A00010BD10B500218D20FFF795FF002110200C
:1009B000FFF791FF0021AE20FFF78DFF10BD70B54E
:1009C000002418E004F1B0000021FFF784FF0021AB
:1009D0000846FFF780FF00211020FFF77CFF00256D
:1009E00005E001210020FFF776FF681CC5B2802DCD
:1009F000F7DB601CC4B2082CE4DB70BD70B50024CA
:100A000018E004F1B0000021FFF765FF002108465F
:100A1000FFF761FF00211020FFF75DFF002505E0D3
:100A200001210846FFF757FF681CC5B2802DF7DB90
:100A3000601CC4B2082CE4DB70BD2DE9F04707460A
:100A40000E469046994600250024A8F12000C5B224
:100A50007F2F02DD0027B01CC6B2B9F1100F24D1E0
:100A600031463846FFF77BFF002408E004EB051110
:100A70004F4A505C0121FFF72EFF601CC4B2082CC6
:100A8000F4DB701CC1B23846FFF769FF002409E0AF
:100A900004EB05110831464A505C0121FFF71BFFAA
:100AA000601CC4B2082CF3DB12E031463846FFF775
:100AB00056FF00240AE005EB45013E4A02EB4101E6
:100AC000085D0121FFF707FF601CC4B2062CF2DBB2
:100AD000BDE8F08710B50246012000E050430B1E30
:100AE000A1F10104E1B2F9D110BD2DE9FF5F074684
:100AF00091461E460E9D4FF0000A002435E0301B43
:100B0000401EC1B20A20FFF7E5FFB9FBF0F00A2151
:100B1000B0FBF1F201FB1208BAF1000F14D1701E04
:100B2000A04211DDB8F1000F0CD1AB4605EBDB7133
:100B3000491001FB0471C8B22B4620220199FFF72E
:100B40007CFF10E04FF0010AAB4605EBDB7149106A
:100B500001FB0471C8B208F13001CAB22B460199F9
:100B6000FFF76BFF00BF601CC4B2B442C7DBBDE837
:100B7000FF9F2DE9F04104460F4615469846002692
:100B80000FE0AA5D434639462046FFF756FF04F1C1
:100B90000800C4B2782C02DD0024B81CC7B2701C57
:100BA000C6B2A85D0028ECD1BDE8F081000C014080
:100BB000EC730008C47100082DE9F04104460F46AB
:100BC0001546984600260FE0AA5D43463946204662
:100BD000FFF733FF04F10800C4B2782C02DD0024D3
:100BE000B81CC7B2701CC6B2A85D0028ECD1BDE825
:100BF000F0812DE9F04180460E461546002731462A
:100C00004046FFF7ACFE00240AE0744A02EB85116F
:100C1000085D0121FFF75FFE781CC7B2601CC4B2FB
:100C2000102CF2DB701CC1B24046FFF798FE002486
:100C30000CE06900491C694A02EB4111085D012181
:100C4000FFF749FE781CC7B2601CC4B2102CF0DB61
:100C5000BDE8F0812DE9F05F06460F4690461C4640
:100C6000DDF828A04FF0000BE11704EB5171C9101B
:100C7000A4EBC10131B92046E11704EB5171C1F376
:100C8000C70506E02046E11704EB5171C910491C65
:100C9000CDB23D4615E029463046FFF760FEB1462D
:100CA0000BE059460BF1010B1AF801000121FFF787
:100CB00012FE09F1010000F0FF09C145F1DB681CDB
:100CC000C5B2A542E7DBBDE8F09F08B501210820C9
:100CD00002F05EF94FF42040ADF8000010208DF8CE
:100CE000030003208DF8020069463D4801F094FEA0
:100CF0004FF420413A4801F03CFFC82000F0AFF823
:100D00000021AE20FFF7E7FD00210846FFF7E3FDD5
:100D100000211020FFF7DFFD00214020FFF7DBFD61
:100D20000021B020FFF7D7FD00218120FFF7D3FD80
:100D30000021FF20FFF7CFFD0021A120FFF7CBFD11
:100D40000021A620FFF7C7FD0021A820FFF7C3FD63
:100D500000213F20FFF7BFFD0021C820FFF7BBFDAA
:100D60000021D320FFF7B7FD00210846FFF7B3FDB0
:100D70000021D520FFF7AFFD00218020FFF7ABFD5C
:100D80000021D820FFF7A7FD00210520FFF7A3FDD4
:100D90000021D920FFF79FFD0021F120FFF79BFDE7
:100DA0000021DA20FFF797FD00211220FFF793FDC5
:100DB0000021DB20FFF78FFD00213020FFF78BFDA6
:100DC00000218D20FFF787FD00211420FFF783FD10
:100DD0000021AF20FFF77FFD08BD00007800002054
:100DE000000C014010B56FF0040001F096FD2E4894
:100DF00000682E49B0FBF1F02D49087008460078D4
:100E000000EB4001C1EBC0104FF6FF7101EAC000DA
:100E10002849088010BD0146254A12784A434FF000
:100E2000E0235A6100229A611A46126942F00102D7
:100E30001A6100BF4FF0E022106900F001021AB100
:100E400000F48032002AF5D04FF0E022126922F03F
:100E500001024FF0E0231A6100229A6170470146B7
:100E6000144A12884A434FF0E0235A6100229A61E3
:100E70001A46126942F001021A6100BF4FF0E022E7
:100E8000106900F001021AB100F48032002AF5D096
:100E90004FF0E022126922F001024FF0E0231A61C4
:100EA00000229A61704700006400002000127A005E
:100EB000380300203A03002010B54FF4A06001F081
:100EC000DDFC10BD10B586B00446012144F20500DA
:100ED00002F05EF84FF40070ADF8140003208DF8B6
:100EE000160018208DF8170005A99E4801F094FD02
:100EF0004FF48060ADF8140004208DF8170005A9A8
:100F0000984801F089FD25208DF8000003208DF818
:100F100001008DF8020001208DF80300684601F001
:100F2000B2FC01940020ADF80800ADF80A00ADF85D
:100F30000C00ADF810000C20ADF80E0001A98A4895
:100F400002F0CDF8012240F22551874802F05FF906
:100F50000121854802F04FF906B010BD10B540F2EE
:100F60002551814802F038FA002840D07E4802F02E
:100F7000B3F9C4B27D48008800F40040002836D19F
:100F80007A48008800F48040B8B10A2C06D00020CE
:100F90007649088076A003F005FD28E073480088B4
:100FA00040F400407149088040F225516E4802F03B
:100FB0000AFA71A003F0F6FC19E00D2C06D16B487B
:100FC000008840F480406949088010E06748008844
:100FD000C0F30D006A490C5464480088401C634902
:100FE000088008460088C72801DD0020088010BD61
:100FF00000B585B00121042001F0CAFF012188035A
:1010000001F0C6FF4FF40070ADF8100018208DF805
:10101000130003208DF8120004A9524801F0FCFCD3
:101020004FF48060ADF8100004208DF8130004A97F
:101030004C4801F0F1FC4FF4E13000900020ADF895
:101040000400ADF80600ADF80800ADF80C000C2067
:10105000ADF80A006946444802F041F8012240F226
:101060002551414802F0D3F801213F4802F0C3F86E
:1010700005B000BD70B504460D462946204602F075
:1010800027F900BF8021204602F090F90028F9D00E
:1010900070BD2DE9F04107460D461646002405E0D7
:1010A000295D3846FFF7E6FF601CC4B2B442F7DBA7
:1010B00000BF4021384602F079F90028F9D0BDE898
:1010C000F08170B506460C46002500BF615D3046D4
:1010D000FFF7D0FF6D1C605D0028F7D100BF4021F5
:1010E000304602F063F90028F9D070BD2DE9F041D7
:1010F00005460C46260AE7B23146284602F0E8F8D3
:1011000000BF8021284602F051F90028F9D0394665
:10111000284602F0DDF800BF8021284602F046F99B
:101120000028F9D0BDE8F08170B504460D46E1B263
:101130000D4802F0CDF800BF80210B4802F036F9CF
:101140000028F9D0204670BD10B5044600BF20210C
:10115000054802F02BF90028F9D0034802F0BCF84A
:1011600010BD000000080140003801403C03002091
:10117000455252210D0A00004F4B210D0A0000007C
:10118000D408002008B50121102001F001FF022041
:10119000ADF8000048208DF803006946894801F049
:1011A0003BFC4FF40050ADF8000048208DF80300E0
:1011B0006946844801F030FC08BD10B582480078CB
:1011C00020B1012828D0022825D161E002217D48E4
:1011D00001F0B5FC08B9012400E000244FF40051EF
:1011E000784801F0ACFC08B9012000E0002004437D
:1011F00074B176480078401C74490870084600783D
:10120000052808DB0020087001206F49087002E003
:1012100000206E49087084E000206C4908700221AB
:10122000684801F08CFC58B94FF40051654801F052
:1012300086FC012804D1664908706649C87023E01D
:101240004FF400515F4801F07AFC60B902215D481B
:1012500001F075FC012806D100205F4908800120BB
:101260005C49487010E04FF40051564801F067FCAB
:1012700050B90221534801F062FC28B903205449B7
:10128000087001205349C87002204F49087048E097
:1012900002214C4801F053FC012820D14103494868
:1012A00001F04DFC01281AD148480078401C4749FC
:1012B000087008460078052832DD0020087045488F
:1012C000407840B1002043494870022040490870EE
:1012D00001204049C87000203B49087020E04FF4CD
:1012E0000051384801F02BFCD0B90221354801F0FB
:1012F00026FC012814D138480088401C3649088053
:1013000008460088B0F5967F0ADD00203149487014
:101310003149088020202E49087001202D49C870CD
:1013200000BF00BF2B48C07828B100202949C870F1
:101330002748007810BD0020FCE710B5FFF73DFFFF
:10134000032830D004DC012807D0022834D117E06C
:1013500010282CD020282FD12AE0204800780028FF
:1013600007DDFFF72CFB1D480078401E1B49087065
:1013700002E004201949087019A003F013FB1BE0D8
:1013800016480078042807DCFFF719FB134800789B
:10139000401C1249087002E000201049087013A098
:1013A00003F000FB08E014A003F0FCFA04E003E003
:1013B00015A003F0F7FA00BF00BF00200449087031
:1013C00010BD0000001001403E0300203F0300203C
:1013D0004003002050080020440300203E0000206D
:1013E0004B455930B0B4CFC20D0A00004B455931BE
:1013F000B0B4CFC20D0A0000D7E9BACFB0B4BCFC7C
:10140000B0B4CFC20D0A00004B455931B3A4B0B4FB
:1014100033530D0A0000000008B54FF4E06001F0FE
:101420002DFA36208DF8000000208DF801000320F1
:101430008DF8020001208DF80300684601F023FAC0
:1014400008BD0EB50121102001F0AFFD40F2E730DC
:10145000ADF804004720ADF8000069460B4802F0E3
:10146000D3F80121094802F0F1FE01221146074894
:1014700002F041FC0121054802F022FC0EBD10B52E
:10148000FFF7CAFFFFF7DDFF10BD000000100040AE
:1014900030B50146B1F1807F01D3012030BD21F08C
:1014A0007F40401E4FF0E022506150170F2200286D
:1014B00007DA13071D0E394B00F00F04241F1D55CA
:1014C00003E013071C0E364B1C5400BF00204FF0E6
:1014D000E0229061072010610020DFE710B531485D
:1014E00000683149B0FBF1F42046FFF7D1FF08B1A5
:1014F00000BFFEE74FF0E020006920F001004FF050
:10150000E021086110BD31B5264800682649B0FBCE
:10151000F1F52846FFF7BCFF002408E000BF4FF0BC
:10152000E020006900F480300028F8D0641C0098A6
:101530008442F3D34FF0E020006920F001004FF027
:10154000E021086138BD31B5164800684FF47A7162
:10155000B0FBF1F52846FFF79BFF002408E000BF31
:101560004FF0E020006900F480300028F8D0641CBF
:1015700000988442F3D34FF0E020006920F001008E
:101580004FF0E021086138BD0848006820B10748E5
:101590000068401E054908607047000018ED00E033
:1015A00000E400E06400002040420F0054030020EB
:1015B00008B50121242001F0EBFC4FF48270ADF856
:1015C000000010208DF8030003208DF8020069460A
:1015D000084801F021FA6946074801F01DFA4FF466
:1015E000807004491031086080020349103108609E
:1015F00008BD0000000801400014014008B50121A9
:10160000082001F0C5FC4FF48070ADF800001020F8
:101610008DF8030003208DF802006946564801F05A
:10162000FBF908BD10B5FFF7E9FF4FF48071524890
:1016300001F09FFA10BD08B54FF48070ADF80000BE
:1016400048208DF8030069464B4801F0E5F908BDD4
:1016500008B54FF48070ADF8000010208DF803003D
:1016600003208DF802006946434801F0D5F908BD12
:1016700070B50025002427E000BF4FF480713E487C
:1016800001F05DFA0028F8D02820FFF73CFF4FF466
:101690008071394801F053FA01280ED100BF4FF490
:1016A0008071354801F04BFA0128F8D0C4F10701E8
:1016B00001208840C0B2054304E0C4F107010120C5
:1016C00088408543601CC4B2082CD5DB284670BD19
:1016D00010B50446FFF7BCFF4FF48071264801F0B7
:1016E0004AFA1220FFF72FFF4FF48071224801F0D1
:1016F00040FA1E20FFF707FFFFF79DFF4FF48071B0
:101700001D4801F01CFA88BB00BF4FF480711A48D5
:1017100001F015FA0028F8D000BF4FF48071164888
:1017200001F00DFA0128F8D0FFF7A2FF2070FFF7B3
:101730009FFF6070FFF79CFFA070FFF799FFE070BC
:10174000FFF796FF2071FFF783FF4FF480710A487F
:1017500001F00FFA207861780844A1780844E17814
:1017600008442179884202D1012010BD01E0002007
:10177000FBE70020F9E70000000C014010B5102342
:101780004BA202211420FFF7F4F910234A4A022148
:101790003F20FFF711FA1023432202216C20FFF7AC
:1017A0004CF9102345A204211420FFF7E2F910237D
:1017B000444A04213F20FFF7FFF91023252204218A
:1017C0006C20FFF73AF910BD08B53F480823802286
:1017D000002100900846FFF73DFA08BD08B5002239
:1017E00011461046FFF705FA012200211220FFF7EB
:1017F00000FA022200212420FFF7FBF90322002136
:101800003620FFF7F6F9042200214820FFF7F1F90E
:10181000052200215A20FFF7ECF910232BA2022108
:101820000820FFF7A6F910232CA204211420FFF7AB
:10183000A0F910232CA206210020FFF79AF910230B
:101840002BA206213F20FFF794F910232A480278A3
:1018500006213020FFF7F1F827480078401C264980
:101860000870084600787E2801DD202008701020CE
:10187000032300902048027806216720FFF735F9FE
:1018800008BD10B51D48007805280FD2DFE800F02C
:101890000306090C0D00FFF7A1FF07E0FFF794FF17
:1018A00004E0FFF76BFF01E000E000BF00BF10BDE8
:1018B00054656D703A200000CA08002048756D69B3
:1018C0003A200000C0080020580300202070616EFC
:1018D000206B652720546573742000003230323449
:1018E0002F30342F3034000041534349493A00002F
:1018F000434F44453A0000003F0000203E000020D6
:1019000008B54FF4E06000F0B9FF32208DF8000018
:1019100000208DF8010003208DF8020001208DF8D1
:101920000300684600F0AFFF08BD08B501210420A0
:1019300001F02EFB0220ADF8000048208DF80300D6
:101940006946D64801F068F808BD00B587B00121A6
:10195000082001F02AFB42F20F70ADF80800472082
:10196000ADF804000020ADF80A00ADF806008DF8CF
:101970000C0001A9CA4801F047FE0420ADF8100090
:101980000020ADF812000120ADF814000020ADF8E1
:101990001600ADF8180004A9C14802F0C8F80521E6
:1019A000BF4802F053FC01220521BD4802F0A3F913
:1019B0000121BB4802F084F907B000BD10B5FFF764
:1019C000B4FFFFF79DFFFFF7C0FF10BD10B5012169
:1019D000B34802F03EFCB0B1B2488079012812D180
:1019E000B0488088032809DDAF48007818B1AD48B9
:1019F0008088092802DD0020AA498871A9488088CA
:101A0000401CA84988800421A54802F022FC002837
:101A100011D0A448407878B90021A14802F0E4FB35
:101A200002219F4802F010FB00209E4948800120BF
:101A30004870002088807CE0994802F0EEFB9949CC
:101A400048800021964802F0FFFA0020954948702E
:101A5000012008700846007801286AD1084680797C
:101A6000012852D108464088B0F5967F15DD08461A
:101A70004088B0F5487F10DA084600894FF6FF71BC
:101A800001EA4000874908810846008908818748A3
:101A90000078401C854908704BE082484088B0F5CA
:101AA000AF6F17DD7F484088B0F5E16F12DA7D48EF
:101AB00000894FF6FF7101EA40007A490881084623
:101AC000008940F00100088178480078401C77497F
:101AD00008702EE07348408840F63401884228DDC3
:101AE0007048408840F6C411884222DA6E48007877
:101AF000032804DD6D480078401C6C4908706A4872
:101B00000078401C6849087013E06648408841F23C
:101B1000680188420DDD6348408841F25C218842BB
:101B200007DA01205F4988710020604908705E492A
:101B300008705E48007818280BD15A48007A5C4932
:101B400008700020574908815948007859490870A1
:101B500000BF00BF0521524802F078FB10BD10B550
:101B60000446682C57D012DC382C76D008DC022CC6
:101B700039D0102C6DD0182C55D0222C68D12EE0E5
:101B80004A2C74D05A2C6ED0622CF7D119E0B02CAC
:101B900045D008DC902C36D0982C38D0A22C09D017
:101BA000A82C77D12BE0C22C21D0E02C23D0E22C22
:101BB00070D10DE000204049087040A002F0F2FE14
:101BC00069E001203C4908703DA002F0EBFE62E0B4
:101BD0000220394908703BA002F0E4FE5BE03AA025
:101BE00002F0E0FE57E039A002F0DCFE53E038A03E
:101BF00002F0D8FE4FE037A002F0D4FE4BE036A052
:101C000002F0D0FE47E035A002F0CCFE43E034A065
:101C100002F0C8FE3FE033A002F0C4FE3BE032A079
:101C200002F0C0FE37E024480078042807DCFEF705
:101C3000C6FE21480078401C1F49087002E00020C1
:101C40001D49087029A002F0ADFE24E005E000E087
:101C500020E028A002F0A6FE1DE028A002F0A2FECF
:101C600019E004E0FFE727A002F09CFE13E0124811
:101C70000078002807DDFEF7A2FE0F480078401E1E
:101C80000D49087002E004200B4908701FA002F003
:101C900089FE00E000BF00BF10BD00000008014049
:101CA000000C0040A60900205A0700205807002019
:101CB000590700205B0700203E000020310D0A007C
:101CC000320D0A00330D0A00340D0A00350D0A00EA
:101CD000360D0A00370D0A00380D0A00390D0A00CA
:101CE000300D0A002A0D0A00230D0A005570200D40
:101CF0000A0000004C6566740D0A00004F4B200D71
:101D00000A00000052696768740D0A00446F776E1C
:101D10000D0A000008B50121042001F039F9042062
:101D2000ADF8000000208DF803006946314800F04E
:101D300073FE08BD00B585B00121480201F028F905
:101D4000002000908DF8040001208DF805004FF46C
:101D5000602002900020039001208DF81000694659
:101D6000254802F0B2FA4FF4404001F075F807231D
:101D700001220221204802F040FB01224FF40871A9
:101D80001D4802F0E4FA01211B4802F0CAFA1A4881
:101D900002F0E9FA00BF184802F0EAFA0028FAD186
:101DA000154802F0EFFA00BF134802F0F0FA0028DD
:101DB000FAD10121104802F0F4FA05B000BD08B5CF
:101DC0004FF4C06000F05AFD12208DF80000012091
:101DD0008DF801008DF802008DF80300684600F0D0
:101DE00052FD08BD10B5FFF795FFFFF7A3FFFFF702
:101DF000E6FF10BD000801400024014006E000BFDE
:101E000000BF00BF00BF00BF00BF401E0028F6D1CA
:101E1000704710B54FF48051C64800F0ACFE032067
:101E2000FFF7ECFF4FF40061C24800F0A4FE4FF44E
:101E30008051C04800F09DFE0320FFF7DFFF4FF404
:101E40000061BC4800F095FE10BD10B54FF4805104
:101E5000B84800F090FE0520FFF7D0FF4FF4006176
:101E6000B44800F06CFE044600BF002CFDD14FF4D6
:101E70008051B04800F07DFE0220FFF7BFFF4FF415
:101E80008051AC4800F077FE10BD70B504460025C7
:101E900020E04FF48051A74800F06DFE04F00100EF
:101EA00028B14FF40061A34800F063FE04E04FF452
:101EB0000061A04800F05FFE0320FFF79FFF641061
:101EC0004FF480519B4800F054FE0320FFF796FF2B
:101ED000681CC5B2082DDCDB70BD10B54FF4805115
:101EE000944800F046FE4FF40061924800F041FE35
:101EF0004FF400618F4800F03EFE0320FFF77EFFA5
:101F00004FF480518B4800F036FE10BD08B501211A
:101F1000042001F03DF84FF48050ADF8000010208F
:101F20008DF8030003208DF802006946814800F017
:101F300073FD4FF40060ADF8000010208DF8030031
:101F400003208DF8020069467A4800F065FDFFF72E
:101F5000C4FF8020FFF799FFFFF777FFFFF759FFD6
:101F600008BD70B506460C46C12E02D07248055D0C
:101F70000DE07248007A28B9012070490872704853
:101F8000055D04E000206D4908726B48055DFFF7B0
:101F9000A4FF4420FFF779FFFFF757FFFFF739FF52
:101FA000FFF79BFF3046FFF770FFFFF74EFF284615
:101FB000FFF76BFFFFF749FFFFF72BFFFFF78DFFE1
:101FC0008B20FFF762FFFFF740FFFFF722FF70BD96
:101FD00010B5FFF782FF4420FFF757FFFFF735FFEB
:101FE000FFF717FFFFF779FFC020FFF74EFFFFF75E
:101FF0002CFFFFF70EFF0021C020FFF7B2FF1121D9
:10200000C120FFF7AEFF0221C220FFF7AAFF042183
:10201000C320FFF7A6FF10BD2DE9F0470446257A3F
:1020200026790A2095FBF0F0C7B20A2095FBF0F163
:1020300000FB115000F0FF080A2096FBF0F000F0C2
:10204000FF090A2096FBF0F100FB116000F0FF0A87
:10205000FFF743FF4420FFF718FFFFF7F6FEFFF7F7
:10206000D8FEFFF73AFFC020FFF70FFFFFF7EDFEA6
:10207000FFF7CFFE3148807948B9FFF72EFF802067
:10208000FFF703FFFFF7E1FEFFF7C3FE4FE02D4828
:10209000007801281BD13946C020FFF762FF414676
:1020A000C120FFF75EFF2548C07938B11A21C02052
:1020B000FFF757FF0A21C120FFF753FF4946C2200F
:1020C000FFF74FFF5146C320FFF74BFF2FE01D489E
:1020D000007802281BD13946C020FFF742FF414655
:1020E000C120FFF73EFF4946C220FFF73AFF5146A5
:1020F000C320FFF736FF1148C079C0B11A21C220B2
:10210000FFF72FFF1A21C320FFF72BFF0FE03946FF
:10211000C020FFF726FF4146C120FFF722FF4946B6
:10212000C220FFF71EFF5146C320FFF71AFFBDE88C
:10213000F087000000080140DC790008500800200A
:10214000F77900084A03002008B54FF4C06000F09A
:1021500095FB03208DF8000001208DF80100002080
:102160008DF8020001208DF80300684600F08BFB1B
:1021700008BD10B501214FF0C05000F016FF01203E
:1021800002F0B5FB02F046FB012000F06EFE00BF3E
:10219000412000F0D2FD0028FAD04FF4807000F00A
:1021A00080FE012000F083FE02F0F5FA02F0EAFA68
:1021B0000121032002F08AFA02F0E4FA47F6FF70E8
:1021C00002F0BAFA02F0DEFA10BD70B50446FFF76D
:1021D000D0FF02F0D7FA204600F08BFAA0F5E145D7
:1021E000284602F09CFA02F0CDFA70BD10B5044604
:1021F000042002F044FB4AF2A55188420ED0AAA066
:1022000002F0D0FBB0A002F0CDFB2046FFF7DDFFCF
:102210004AF2A551042002F026FB21E001214FF0F3
:10222000C05000F0C2FE012002F061FB7B2000F0F4
:1022300084FD18B1AAA002F0B5FB06E07A2000F0F8
:102240007CFD10B1AFA002F0ADFBB7A002F0AAFB7D
:1022500002F0A1FA0121032002F038FA02F092FA0A
:1022600000F0D4FE10BDF0B587B005460C4605F56C
:10227000E1462146304600F078FA6069C01E0C2124
:1022800090FBF1F201FB1200AF4951F82070DFF82A
:10229000BCC2A3695CF8233094E80700CDE90232A0
:1022A000CDE90410D4E90310CDE900013B462946ED
:1022B000A748626902F076FB2046FFF7ADFE07B043
:1022C000F0BD38B50446002000900025A1A002F022
:1022D00069FB00BFAD4802F065FB6946ACA002F0A7
:1022E00089FC40F2B2710098884204D340F2F67142
:1022F0000098884204D9A7A0009902F053FB06E099
:10230000ADA0009902F04EFB0098606100E0E1E7AB
:1023100000BF00BFAE4802F045FB69469CA002F03A
:1023200069FC009810B100980C2804D999A0009974
:1023300002F038FB06E0A7A0009902F033FB0098FA
:10234000206100E0E6E700BF20690D2832D2DFE817
:1023500000F0310714080F09100A0B110C120D00C0
:1023600000BF00BF00BF00BF00BF00BF1F2521E0AE
:1023700000BF00BF00BF1E251CE06069C11700EB55
:1023800091718910A0EB810191B96422616991FB7F
:10239000F2F302FB131131B99200616991FBF2F380
:1023A00002FB131121B92169022901DD1D2500E07D
:1023B0001C2500BF00BF00BF29468C4802F0F2FA7E
:1023C000694673A002F016FC009810B10098A8426C
:1023D00004D970A0009902F0E5FA06E084A0009903
:1023E00002F0E0FA0098E06000E0E5E700BF00BF1F
:1023F000854802F0D7FA694665A002F0FBFB009819
:10240000172804D963A0009902F0CCFA06E07FA057
:10241000009902F0C7FA0098A06000E0E8E700BF6A
:1024200000BF804802F0BEFA694659A002F0E2FB04
:1024300000983B2804D957A0009902F0B3FA06E0AF
:1024400079A0009902F0AEFA0098606000E0E8E739
:1024500000BF00BF7A4802F0A5FA69464CA002F01E
:10246000C9FB00983B2804D94AA0009902F09AFAC7
:1024700006E074A0009902F095FA0098206000E050
:10248000E8E700BF38BD04460CE074480068012846
:1024900008D102F03BF905462146FFF7E4FE002093
:1024A0006E490860F1E700000D0A0D0A20525443FE
:1024B000206E6F742079657420636F6E666967752E
:1024C0007265642E2E2E2E000D0A0D0A20525443E2
:1024D00020636F6E666967757265642E2E2E2E00FE
:1024E0000D0A0D0A20506F776572204F6E205265DD
:1024F000736574206F636375727265642E2E2E2E61
:10250000000000000D0A0D0A2045787465726E61A6
:102510006C205265736574206F63637572726564B5
:102520002E2E2E2E000000000D0A204E6F206E650C
:10253000656420746F20636F6E66696775726520CD
:102540005254432E2E2E2E008407002068070020B0
:10255000EC7A00080D0A3D3D3D3D3D3D3D3D3D3D94
:102560003D3D3D3D3D3D3D3D3D3D3D3D3D3D3DC90F
:10257000E8D6C3CAB1BCE43D3D3D3D3D3D3D3D3D9A
:102580003D3D3D3D3D3D3D3D3D000000C47B0008DF
:10259000256400000D0A20C4FACAE4C8EBB5C4CA19
:1025A000FDD7D6CAC73A2564A3ACB2BBB7FBBACF36
:1025B000D2AAC7F3000000000A0D2020C4EAB7DD4C
:1025C000B1BBC9E8D6C3CEAA3A2025640A0D0000E3
:1025D0003C7B00080A0D2020D4C2B7DDB1BBC9E89E
:1025E000D6C3CEAA3A2025640A0D0000947C0008C8
:1025F0000A0D2020C8D5C6DAB1BBC9E8D6C3CEAA19
:102600003A2025640A0D0000807B00080A0D202076
:10261000CAB1D6D3B1BBC9E8D6C3CEAA3A20256485
:102620000A0D0000507C00080A0D2020B7D6D6D332
:10263000B1BBC9E8D6C3CEAA3A2025640A0D000072
:102640000C7C00080A0D2020C3EBD6D3B1BBC9E82F
:10265000D6C3CEAA3A2025640A0D000060070020E8
:10266000F0B58DB004463022704901A802F078FB25
:102670006069451E642195FBF1F12846EA1705EBD8
:102680009272C1EBA2014FF4C87295FBF2F28F185F
:102690006069C11700EB91718910A0EB810191B9BC
:1026A0006422616991FBF2F302FB131131B99200CC
:1026B000616991FBF2F302FB131121B9216902292F
:1026C00001DD012600E0002640F26D1005FB0071DF
:1026D0002069401E01AA52F820000844E16808441D
:1026E0000644072096FBF0F100FB1160A0610DB0DD
:1026F000F0BD10B501460869801E0861002805DCA0
:1027000008690C3008614869401E486164234869C3
:1027100090FBF3F04A69D31702EB9373C0EBA3006D
:102720004FF4C87492FBF4F3034440F26F14086949
:1027300060430C2490FBF4F01844CB68034440F24F
:102740006D1402FB04303A4BC01A00EB40008B685A
:1027500003EBC000C0EB00104B6803EB8000C0EB44
:1027600000100B6803EB800010BD2DE9F041074617
:102770000C463048B7FBF0F6B7FBF0F100FB1178E0
:102780004FF4616098FBF0F0A0604FF4616098FB3B
:10279000F0F100FB11803C2190FBF1F060604FF400
:1027A000616098FBF0F100FB11803C2190FBF1F29D
:1027B00001FB1200206040F2B27509E005F0030051
:1027C00010B94FF4B77001E040F26D10361A6D1C6D
:1027D00005F0030010B94FF4B77001E040F26D103E
:1027E000B042EBDD65616069C11700EB9171891042
:1027F000A0EB810111B91D200F494860012505E0BA
:10280000681E0D4951F82000361A6D1C681E0A49D1
:1028100051F82000B042F3DD1C2048602561701C97
:10282000E0602046FFF71CFFBDE8F081087A000851
:102830008BFA0A00805101000008002009488047F7
:1028400009480047FEE7FEE7FEE7FEE7FEE7FEE792
:10285000FEE7FEE7FEE7FEE704480549054A064BAA
:1028600070470000BF06000831010008100B00206F
:1028700010110020100D0020100D002031490143DF
:10288000314A1160704770B5002100230F22C478CF
:1028900004B32D4C246804F4E064C4F5E064210A18
:1028A000C1F10403CA40447804FA03F18478144067
:1028B00021430901254C0678A155047804F01F0531
:1028C0000124AC4005786D11AD0005F1E025C5F897
:1028D000004109E0047804F01F050124AC401C4DC0
:1028E0000678761145F8264070BD1A4A0A40024320
:1028F000154B1B1F1A60704739B1134A121D12681D
:102900000243114B1B1D1A6006E00F4A121D12688C
:1029100082430D4B1B1D1A607047042808D14FF0ED
:10292000E021096941F004014FF0E022116107E064
:102930004FF0E021096921F004014FF0E02211611C
:10294000704700000000FA050CED00E000E400E034
:1029500080E100E080FFFF1F10B50446CC488442B0
:1029600008D10121042000F02DFB0021042000F0FB
:1029700029FB46E0C748844208D10121082000F025
:1029800021FB0021082000F01DFB3AE0C2488442F0
:1029900008D10121102000F015FB0021102000F0CB
:1029A00011FB2EE0BD48844208D10121202000F017
:1029B00009FB0021202000F005FB22E0B8488442FA
:1029C00008D10121402000F0FDFA0021402000F054
:1029D000F9FA16E0B348844208D10121802000F0C2
:1029E000F1FA0021802000F0EDFA0AE0AE488442BE
:1029F00007D10121801500F0E5FA0021A01500F0B3
:102A0000E1FA10BD10B50121084600F0DBFA002103
:102A1000012000F0D7FA10BD2DE9F0410246002553
:102A20000026002000230024002791F803C00CF0AA
:102A30000F0591F803C00CF0100CBCF1000F03D08F
:102A400091F802C04CEA050591F800C0BCF1000FF6
:102A500031D0146800202BE04FF0010C0CFA00F389
:102A6000B1F800C00CEA03069E4220D183004FF06B
:102A70000F0C0CFA03F7BC4305FA03FC4CEA040400
:102A800091F803C0BCF1280F06D14FF0010C0CFAED
:102A900000FCC2F814C00AE091F803C0BCF1480F72
:102AA00005D14FF0010C0CFA00FCC2F810C0401C1C
:102AB0000828D1D31460B1F800C0BCF1FF0F34DD99
:102AC000546800202EE000F1080C4FF0010808FACD
:102AD0000CF3B1F800C00CEA03069E4221D183003A
:102AE0004FF00F0C0CFA03F7BC4305FA03FC4CEA59
:102AF000040491F803C0BCF1280F05D100F1080CC3
:102B000008FA0CF8C2F8148091F803C0BCF1480F21
:102B100007D100F1080C4FF0010808FA0CF8C2F8D0
:102B20001080401C0828CED35460BDE8F0814FF6D9
:102B3000FF710180022181700421C170704702463B
:102B4000002093680B400BB1012000E0002070478B
:102B50000146886880B2704702460020D3680B4067
:102B60000BB1012000E0002070470146C86880B228
:102B7000704701617047416170470AB1016100E02F
:102B800041617047C16070474FF480320A438261EF
:102B90008161826182698269704702460020434BED
:102BA00018684FF68073184040EA021008433F4B04
:102BB000186070473E49C8617047F0B50A46002367
:102BC00000240021002500F00046B6F1004F02D19C
:102BD000364EF16901E0354E7168C0F3034583B2AA
:102BE00000F44016B6F5401F08D121F070612F4E59
:102BF000766826F070662D4F7E6012E000F4801635
:102C0000B6F5801F06D1032606FA05F4A14341F06C
:102C1000706106E0460D360103FA06F6B14341F055
:102C2000706122B1460D360103FA06F6314300F019
:102C30000046B6F1004F02D11C4EF16101E01B4E7F
:102C40007160F0BD30B500228B071C0F0F2303FA13
:102C500004F2164B08338C1053F824309343134C72
:102C600008348D1044F8253023468C1053F8243056
:102C70008C07240F00FA04F423430C4C08348D1005
:102C800044F8253030BD0A49DC3108607047000047
:102C900000080140000C01400010014000140140F8
:102CA00000180140001C01400020014000000140CC
:102CB00000002042DF48006840F00100DD49086064
:102CC00008464068DC490840DA4948600846006820
:102CD000DA490840D74908600846006820F4802097
:102CE00008600846406820F4FE0048604FF41F006A
:102CF00088607047CF49096821F48031CD4A11605E
:102D00001146096821F480211160B0F5803F03D09D
:102D1000B0F5802F0ED106E0C649096841F4803134
:102D2000C44A116007E0C349096841F4A021C14ABF
:102D3000116000E000BF00BF704710B501460022DF
:102D4000002300204A11012A02D1BA4C236806E070
:102D5000022A02D1B74C236A01E0B64C636A01F043
:102D60001F02012494401C400CB1012000E000200F
:102D700010BD38B5002000900024002500BF312090
:102D8000FFF7DBFF05460098401C00900098B0F567
:102D9000A06F01D0002DF2D03120FFF7CEFF08B197
:102DA000012400E00024204638BD01460020A14A4D
:102DB000106820F0F80040EAC10010607047A04998
:102DC00008607047024600209A4B586820F47C1037
:102DD00042EA01031843974B5860704798490866C8
:102DE000704701460020934A506820F003000843D2
:102DF000506070478F48406800F00C0070470146F3
:102E000000208C4A506820F0F00008435060704762
:102E100001460020874A506820F4E0600843506073
:102E2000704701460020834A506820F4605040EA11
:102E3000C1005060704729B17E4A527A02437D4BEF
:102E40005A7204E07B4A527A82437A4B5A72704734
:102E50007B49D8310860704701460020754A5068A8
:102E600020F440400843506070470021714A2032EE
:102E70001170704A82F82010012802D004280AD16B
:102E800004E001216B4A2032117005E00521694AF6
:102E90002032117000E000BF00BF70476949086030
:102EA00070476449096A0143624A11627047654983
:102EB00044390860704730B5002100220024002307
:102EC0005C4D6D6805F00C0121B1042905D008297D
:102ED00023D105E05C4D056022E05B4D05601FE0FD
:102EE000544D6D6805F47012524D6D6805F48034D0
:102EF000022505EB92421CB9544D554305600BE089
:102F00004C4D6D6805F400351DB1504D55430560BD
:102F100002E04D4D5543056002E04B4D056000BF9A
:102F200000BF444D6D6805F0F0010909484D6B5C28
:102F30000568DD4045603F4D6D6805F4E061090AB4
:102F4000434D6B5C4568DD4085603A4D6D6805F426
:102F50006051C90A3E4D6B5C4568DD40C560354D2A
:102F60006D6805F44041890B3A4D6B5CC568B5FB53
:102F7000F3F5056130BD29B12E4A526902432D4B4C
:102F80005A6104E02B4A526982432A4B5A617047C6
:102F900029B1284A92690243264B9A6104E0254AE6
:102FA00092698243234B9A61704729B1214AD269C1
:102FB0000243204BDA6104E01E4AD26982431D4B72
:102FC000DA61704729B11B4AD2680243194BDA60B3
:102FD00004E0184AD2688243164BDA60704729B180
:102FE000144A12690243134B1A6104E0114A126930
:102FF0008243104B1A61704712494039086070478C
:103000000F49C86470470B49C87170470948406A46
:1030100040F0807007494862704701460020054A29
:1030200092680A400AB1012000E00020704701497F
:1030300088727047001002400000FFF8FFFFF6FEA4
:10304000000042428004424200127A0000093D0022
:10305000300800204008002010B50446FB48844298
:1030600009D101218803FFF7ADFF00214FF4804013
:10307000FFF7A8FF32E0F648844209D10121480455
:10308000FFF7ADFF00214FF40030FFF7A8FF25E068
:10309000F048844209D101218804FFF7A0FF0021F4
:1030A0004FF48020FFF79BFF18E0EB48844209D1E2
:1030B0000121C804FFF793FF00214FF40020FFF720
:1030C0008EFF0BE0E548844208D101210805FFF797
:1030D00086FF00214FF48010FFF781FF10BD2DE91E
:1030E000F04786B005460E460024A24600BFA14622
:1030F0000027B08900B100BF2F462C8A4CF6FF7024
:103100000440F08804432C82AC894EF6F31004404E
:10311000B08831890843718908430443AC81AC8A83
:103120004FF6FF400440B0890443AC8201A8FFF78A
:10313000C2FEC648874202D1DDF810A001E0DDF8EA
:103140000CA0A88900F4004040B10AEBCA0000EBD3
:103150000A1031684900B0FBF1F807E00AEBCA0039
:1031600000EB0A1031688900B0FBF1F86420B8FB6D
:10317000F0F004012009642101FB1089A88900F402
:10318000004040B1322000EBC900B0FBF1F000F08C
:103190000700044308E0322000EB09106421B0FB73
:1031A000F1F000F00F0004432C8106B0BDE8F08779
:1031B0004FF41651016000218180C18001810C21F2
:1031C000418100218181704710B502460020108A9C
:1031D0004FF2FF0318400B884C8823438C8823430D
:1031E000CC8823431843108210BD00210180418008
:1031F0008180C180704721B1828942F4005282816E
:1032000004E082894DF6FF731A4082817047F0B561
:103210000346002400260025002040F66A17B94224
:1032200000D100BF1846C1F3421401F01F06012768
:1032300007FA06F5012C01D10C3004E0022C01D173
:10324000103000E014301AB107682F43076002E025
:103250000768AF430760F0BD1AB1838A0B438382CE
:1032600002E0838A8B4383827047028A4FF6F073B1
:103270001A400282028A0A430282704782894FF210
:10328000FF731A40828182890A438281704721B18B
:10329000828942F00202828104E082894FF6FD7346
:1032A0001A4082817047028A4FF6DF731A40028209
:1032B000028A0A430282704721B1028A42F48042A4
:1032C000028204E0028A4BF6FF731A4002827047C2
:1032D000C1F308028280704701468888C0F3080065
:1032E0007047818941F0010181817047028BD2B220
:1032F0000283028B42EA012202837047028B02F4AE
:103300007F420283028B0A430283704721B1828A83
:1033100042F02002828204E0828A4FF6DF731A4074
:103320008282704721B1828A42F01002828204E0D8
:10333000828A4FF6EF731A408282704721B1828AE7
:1033400042F00802828204E0828A4FF6F7731A4044
:103350008282704721B1828942F40042828103E077
:103360008289C2F30E028281704721B1828A42F4BF
:103370000062828204E0828A4FF2FF731A408282E6
:103380007047828A4FF6FB731A408282828A0A4310
:103390008282704721B1828A42F00202828204E076
:1033A000828A4FF6FD731A408282704702460020DF
:1033B000B1F5007F00D100BF13880B400BB1012095
:1033C00000E00020704701F40072B2F5007F00D1E8
:1033D00000BFCA430280704770B502460024002334
:1033E0000025002040F66A16B14200D100BFC1F3AB
:1033F000421501F01F03012606FA03F3012D02D145
:103400009689334006E0022D02D1168A334001E04E
:10341000968A33400C12012606FA04F416883440CA
:1034200013B10CB1012000E0002070BD10B50022E6
:10343000002340F66A14A14200D100BF0A12012401
:103440009440A3B2DC43048010BD0000003801406A
:103450000044004000480040004C00400050004044
:1034600010B50446FE48844208D10121C014FFF77C
:10347000A9FD0021E014FFF7A5FDC4E0B4F1804FE1
:1034800008D101210846FFF7AAFD00210120FFF71E
:10349000A6FDB8E0F348844208D101210220FFF7DD
:1034A0009EFD00210220FFF79AFDACE0EE48844229
:1034B00008D101210420FFF792FD00210420FFF72D
:1034C0008EFDA0E0E948844208D101210820FFF7E1
:1034D00086FD00210820FFF782FD94E0E448844245
:1034E00008D101211020FFF77AFD00211020FFF7FD
:1034F00076FD88E0DF48844208D101212020FFF7D3
:103500006EFD00212020FFF76AFD7CE0DA4884424E
:1035100008D101214014FFF755FD00216014FFF789
:1035200051FD70E0D548844209D10121C804FFF75C
:1035300049FD00214FF40020FFF744FD63E0D0482F
:10354000844209D101210805FFF73CFD00214FF419
:103550008010FFF737FD56E0CA48844209D10121A7
:103560004805FFF72FFD00214FF40010FFF72AFD5B
:1035700049E0C548844208D101214020FFF72FFDD2
:1035800000214020FFF72BFD3DE0C048844208D1D8
:1035900001218020FFF723FD00218020FFF71FFD80
:1035A00031E0BB48844208D101218015FFF717FDA7
:1035B0000021A015FFF713FD25E0B648844209D18C
:1035C00001210804FFF7FEFC00214FF48030FFF7D3
:1035D000F9FC18E0B048844209D101214804FFF702
:1035E000F1FC00214FF40030FFF7ECFC0BE0AB489E
:1035F000844208D101218804FFF7E4FC00214FF444
:103600008020FFF7DFFC10BD00220288944B984217
:103610000ED0994B98420BD0B0F1804F08D0914B0F
:10362000984205D0904B984202D0904B984204D1DA
:103630004FF68F731A404B881A438D4B984207D030
:103640008C4B984204D04FF6FF431A40CB881A4364
:1036500002808B8883850B880385814B98420BD031
:10366000854B984208D08B4B984205D08A4B9842A4
:1036700002D08A4B984201D10B7A038601238382C0
:10368000704770B5002400220023058C4FF6FE76AB
:1036900035400584028C8388048B4FF68F752C404F
:1036A000B51E2C400D882C43751E2A400D892A43D7
:1036B0004D882A436A4DA8420BD06F4DA84208D0CE
:1036C000744DA84205D0744DA84202D0734DA84253
:1036D00013D14FF6F7752A404D892A434FF6FB75F3
:1036E0002A408D882A434FF6FF652B404FF6FF5541
:1036F0002B408D892B43CD892B4383800483CD8838
:103700008586028470BD70B5002400220023058CDC
:103710004FF6EF7635400584028C8388048B48F69B
:10372000FF752C404FF6FF452C400D884FF6FF7675
:1037300006EA05252C434FF6DF752A400D8906EA77
:1037400005152A434D8806EA05152A43444DA8422B
:1037500002D0494DA8421DD14FF67F752A404D89B0
:103760004FF6FF7606EA05152A434FF6BF752A4045
:103770008D8806EA05152A434FF6FF352B404FF298
:10378000FF752B408D8906EA85052B43CD8906EA16
:1037900085052B4383800483CD880587028470BD13
:1037A00070B5002400220023058C4FF6FF663540DB
:1037B0000584028C8388848B4FF68F752C404FF6DE
:1037C000FC752C400D882C434FF6FF552A400D897F
:1037D0004FF6FF7606EA05252A434D8806EA0525B9
:1037E0002A431F4DA84202D0234DA8421DD14FF2BB
:1037F000FF752A404D894FF6FF7606EA05252A43D4
:103800004FF6FF352A408D8806EA05252A434EF6F5
:10381000FF752B404DF6FF752B408D8906EA051587
:103820002B43CD8906EA05152B4383808483CD88FD
:103830008587028470BD70B5002200230024058CAA
:103840004EF6FF7635400584038C8488828B48F6DB
:10385000FF752A404FF6FF452A400D8820E0000002
:10386000002C01400004004000080040000C004013
:10387000001000400014004000340140004C0140A2
:10388000005001400054014000180040001C00405E
:103890000020004000400140004401400048014039
:1038A0004FF6FF7606EA05252A434DF6FF752B40B5
:1038B0000D8906EA05352B434D8806EA05352B436D
:1038C000FA4DA84202D0FA4DA84208D14BF6FF7536
:1038D0002C408D894FF6FF7606EA85152C438480AF
:1038E0008283CD88A0F84050038470BD828B4FF254
:1038F000FF331A408283828B4FF6FF7303EA012362
:103900001A4382837047F0B50C4615460022002109
:103910000026078C4EF6FF7C07EA0C070784828B93
:10392000018C4FF6FF7707EA043640F6FF473A402E
:103930004FF6FF7707EA05273A434FF6FF7707EA86
:1039400003373A43D94FB8420ED0D94FB8420BD0C3
:10395000B0F1804F08D0D74FB84205D0D64FB8420B
:1039600002D0D64FB84206D14DF6FF77394046F423
:103970008057394305E047F6FF57394044F48057F4
:10398000394382830184F0BD828B4FF6F3731A4072
:103990008283828B0A4382837047F0B50C461546BA
:1039A000002200210026078C4FF6FF6C07EA0C0767
:1039B0000784828B018C4FF6FF7707EA04264FF6C7
:1039C0000C773A404FF6FF7707EA03172F433A4345
:1039D000B64FB8420ED0B64FB8420BD0B0F1804FC0
:1039E00008D0B44FB84205D0B34FB84202D0B34F5D
:1039F000B84206D14FF6FF57394046F48077394335
:103A000005E04FF2FF57394044F480773943828311
:103A10000184F0BD028B4FF2FF331A400283028B08
:103A20004FF6FF7303EA01231A4302837047F0B590
:103A30000C461546002200210026078C4FF6EF7C2D
:103A400007EA0C070784028B018C4FF6FF7707EA21
:103A5000041640F6FF473A404FF6FF7707EA033770
:103A60003A434FF6FF7707EA05273A438F4FB842AC
:103A70000ED08F4FB8420BD0B0F1804F08D08D4F91
:103A8000B84205D08C4FB84202D08C4FB84206D114
:103A90004FF6DF77394046F01007394305E04FF61F
:103AA0005F77394044F01007394302830184F0BD49
:103AB000028B4FF6F3731A400283028B0A43028390
:103AC0007047F0B50C46154600220021068C4FF6D3
:103AD000FE773E400684028B018C4FF60C76324016
:103AE0007E1C06EA03162E433243704EB0420ED0BF
:103AF0006F4EB0420BD0B0F1804F08D06D4EB04247
:103B000005D06D4EB04202D06C4EB04206D14FF699
:103B1000FD76314044F00106314305E04FF6F5767D
:103B2000314044F00106314302830184F0BD70B599
:103B300005460C465D4885420ED05D4885420BD057
:103B4000B5F1804F08D05B48854205D05A48854280
:103B500002D05A48854200D100E000BF208850B909
:103B60002389A28861882846FFF7ABFFE1882846B1
:103B7000FFF79EFF25E0208804280AD12389A28828
:103B800061882846FFF753FFE1882846FFF742FF88
:103B900017E0208808280AD12389A288618828464E
:103BA000FFF7FBFEE1882846FFF7EEFE09E02389D8
:103BB000A28861882846FFF7A6FEE1882846FFF71D
:103BC00095FE70BD2DE9F04105460C460026012703
:103BD000608808B9022600E00026A088012801D1EB
:103BE000022700E001272088A0B92389A2886188E4
:103BF0002846FFF766FFE1882846FFF759FF23892B
:103C00003A4631462846FFF712FFE1882846FFF77B
:103C100001FF13E02389A28861882846FFF707FF88
:103C2000E1882846FFF7F6FE23893A4631462846C2
:103C3000FFF747FFE1882846FFF73AFFBDE8F0812C
:103C40000A884B881A438B881A43CB881A430B89FE
:103C50001A434B891A438B891A43A0F844207047B2
:103C60004FF6FF71818000210180C1804180017287
:103C700070470021018041808180C18001814181A4
:103C80008181C181704700210180418001218180B3
:103C90000021C18001817047002101804180818025
:103CA000C18001814181818170470000002C014069
:103CB000003401400004004000080040000C0040B7
:103CC00021B1028842F00102028004E002884FF62E
:103CD000FE731A400280704731B1B0F8442042F4BC
:103CE0000042A0F8442005E0B0F84420C2F30E02E0
:103CF000A0F8442070471AB183890B43838102E006
:103D000083898B43838170478182704741EA020334
:103D1000A0F8483070471AB183890B43838102E0D1
:103D200083898B438381704701894FF6F872114074
:103D3000018170470A46002101894FF68F731940AF
:103D400011430181704730B504460D46294620468F
:103D5000FFF7F0FF208940F00700208130BD2DE9FA
:103D6000F04104460D4616461F46602D06D13B46DF
:103D7000012231462046FFF75AFE05E03B4601226C
:103D800031462046FFF79DFE29462046FFF7D2FF29
:103D9000208940F007002081BDE8F08130B50C4655
:103DA00000210189C9B24FF6FF7505EA03251543C5
:103DB00025432943018130BD2DE9F04105460E46DA
:103DC00017469846002443463A4631462846FFF7B0
:103DD000E5FF2C894FF6F870044044F007044FF6D5
:103DE0008F70044044F070042C81BDE8F081F0B580
:103DF00004460D4616461F463B4632462946204697
:103E0000FFF7CCFF208940F480402081F0BD018580
:103E1000828270470A46002101884FF68F7319404D
:103E2000114301807047F0B50C4615461E4600212F
:103E3000002200230189028B038C4FF6F87739406A
:103E400021434FF6FC473A4040F201173A434FF600
:103E5000DD773B404FF6FF7707EA06172F433B43DA
:103E6000018102830384F0BD0A460021018B4FF6D5
:103E70008F7319401143018370470A460021018B5B
:103E800048F6FF7319404FF6FF7303EA0223194304
:103E9000018370470A460021818B4FF68F731940CA
:103EA0001143818370470A460021818B48F6FF73D6
:103EB00019404FF6FF7303EA0223194381837047C9
:103EC00021B1028842F08002028004E002884FF6AD
:103ED0007F731A400280704721B1828842F0040249
:103EE000828004E082884FF6FB731A40828070471C
:103EF00021B1828842F00802828004E082884FF675
:103F0000F7731A408280704721B1828842F0010223
:103F1000828004E082884FF6FE731A4082807047E8
:103F20000A460021018B4FF6F773194011430183B4
:103F300070470A460021018B4FF2FF7319404FF67C
:103F4000FF7303EA02231943018370470A460021E5
:103F5000818B4FF6F77319401143818370470A46EE
:103F60000021818B4FF2FF7319404FF6FF7303EA74
:103F700002231943818370470A460021018B4FF6C3
:103F8000FB7319401143018370470A460021018BDE
:103F90004FF6FF3319404FF6FF7303EA022319432C
:103FA000018370470A460021818B4FF6FB7319404D
:103FB0001143818370470A460021818B4FF6FF33FE
:103FC00019404FF6FF7303EA0223194381837047B8
:103FD0000A460021018B4FF67F731940114301837C
:103FE00070470A460021018BC1F30E014FF6FF73A3
:103FF00003EA02231943018370470A460021818B9B
:104000004FF67F7319401143818370470A460021A0
:10401000818BC1F30E014FF6FF7303EA02231943AC
:10402000818370470A460021018C4FF6FD731940C9
:104030001143018470470A460021018C4FF6F77343
:1040400019401143018470470A460021018C4FF644
:10405000DF7319404FF6FF7303EA0213194301841B
:1040600070470A460021018C4FF67F7319404FF6C6
:10407000FF7303EA02131943018470470A460021C3
:10408000018C4FF6FF5319404FF6FF7303EA0223EA
:104090001943018470470A460021018C4FF2FF73D7
:1040A00019404FF6FF7303EA022319430184704756
:1040B0000A460021018C4DF6FF7319404FF6FF733D
:1040C00003EA023319430184704730B50023012409
:1040D0008C40A3B2048C9C430484048C02FA01F546
:1040E000ADB22C43048430BD30B5002304248C4091
:1040F000A3B2048C9C430484048C02FA01F5ADB293
:104100002C43048430BD70B50346002000241846BB
:10411000183001258D40ACB21D8CA5431D8409B11A
:10412000082909D100EB6100056825F070050560DC
:104130000568154305600EE00D1FC5F34E052844C4
:10414000056825F4E045056005684FF6FF7606EA48
:1041500002263543056070BD21B1028842F002029B
:10416000028004E002884FF6FD731A400280704717
:1041700021B1028842F00402028004E002884FF676
:10418000FB731A400280704721B1828842F080029E
:10419000828004E082884FF67F731A4082807047E5
:1041A00002884FF6F7731A40028002880A430280A1
:1041B000704782884FF68F731A40828082880A4344
:1041C0008280704702894FF6F8731A400281028993
:1041D0000A430281704702894FF67F731A400281B9
:1041E00002890A4302817047818470478185704744
:1041F000818670470187704781877047A0F840101B
:10420000704702884FF6FF431A40028002880A4333
:10421000028070470146888E70470146088F7047BC
:104220000146888F70470146B1F84000704701464B
:10423000888C70470146088D704702460020138A1B
:104240000B400BB1012000E000207047CA430282FE
:10425000704730B50246002000230024158A05EA85
:104260000103958905EA010413B10CB1012000E0B6
:10427000002030BDCA4302827047000010B50446DA
:10428000FA48844208D101214015FEF79BFE002127
:104290006015FEF797FE17E0F548844208D101212A
:1042A0000015FEF78FFE00212015FEF78BFE0BE0B8
:1042B000F048844208D10121C803FEF783FE0021A3
:1042C0004FF40040FEF77EFE10BD30B502460020E0
:1042D00000235068E84C20400D790C6844EA05241E
:1042E000204350609068E54C2040D1E902542C43B3
:1042F0004D7944EA450420439060D06A20F4700070
:104300000C7C641EE4B2234340EA0350D06230BD0B
:1043100000210160017141718160C160012101745E
:10432000704721B1826842F00102826003E0826836
:1043300022F001028260704721B1826842F48072EB
:10434000826003E0826822F480728260704710B558
:104350000023CBB21AB144681C43446002E04468B5
:104360009C43446010BD816841F008018160704742
:10437000014600208A6802F008020AB1012000E02C
:1043800000207047816841F0040181607047014658
:1043900000208A6802F004020AB1012000E0002037
:1043A000704721B1826842F4A002826003E0826813
:1043B00022F4A00282607047014600208A6802F45D
:1043C00080020AB1012000E00020704710B50A46C3
:1043D00000210023416821F46041531E41EA43312A
:1043E000416010BD21B1426842F40062426003E0C6
:1043F000426822F4006242607047F0B504460D4600
:1044000000200021092D11DDE068A5F10A0606EB68
:104410004607072606FA07F18843A5F10A0606EBC8
:10442000460603FA06F10843E0600CE0206905EB5C
:104430004507072606FA07F1884305EB450603FA08
:1044400006F108432061072A0FDA606B561E06EB5F
:1044500086071F2606FA07F18843561E06EB8606D6
:1044600005FA06F10843606322E00D2A0FDA206B9B
:10447000D61F06EB86071F2606FA07F18843D61FCC
:1044800006EB860605FA06F10843206310E0E06AB1
:10449000A2F10D0606EB86071F2606FA07F18843F0
:1044A000A2F10D0606EB860605FA06F10843E06266
:1044B000F0BD21B1826842F48012826003E082681C
:1044C00022F48012826070470146C86C80B2704747
:1044D00066484C300068704721B1426842F48062FF
:1044E000426003E0426822F480624260704721B17A
:1044F000426842F48052426003E0426822F48052F3
:10450000426070470A460021816821F4E04111436E
:104510008160704721B1826842F40042826003E00A
:10452000826822F400428260704721B1826842F4BE
:104530000212826003E0826822F4021282607047F5
:10454000014600208A6802F400120AB1012000E04E
:1045500000207047F0B504461546002000220026D2
:10456000092911DDE068A1F10A0707EB470C0727CD
:1045700007FA0CF29043A1F10A0707EB470703FA89
:1045800007F21043E0600CE0206901EB410C0727C3
:1045900007FA0CF2904301EB410703FA07F21043CC
:1045A0002061A06BC0F30156EF1C06F1010CA7EBD4
:1045B0000C0707EB870C1F2707FA0CF29043EF1C40
:1045C00006F1010CA7EB0C0707EB870701FA07F2CE
:1045D0001043A063F0BD10B50A4600210023816B93
:1045E00021F44011531E41EA0351816310BD08B507
:1045F000002300930090009B0B440093009B1A60E3
:1046000008BD08B5024600200090009201F1280084
:10461000009B184400900098006880B208BD0A46CC
:1046200000214168164B19401143416070474162B7
:10463000826270470A460021416821F01F01114340
:104640004160704740B109490831096841F40001EF
:10465000064A0832116007E004490831096821F46C
:104660000001024A08321160704700000024014036
:1046700000280140003C0140FFFEF0FFFDF7F1FF84
:10468000FFFD3FFF0246002013680B400BB10120E5
:1046900000E000207047CA430260704770B50246D0
:1046A0000020002300240B125568CEB205EA060450
:1046B00015681D4015B10CB1012000E0002070BD4F
:1046C00000220A12D34303607047000029B1504A08
:1046D000128802434E4B1A8004E04D4A12888243EE
:1046E0004B4B1A8070474A48001D008840F010006C
:1046F0004749091D088070474548001D00884FF64E
:10470000EF7108404249091D088070470021404868
:104710001C300188001F008841EA0040704700B546
:104720000246FFF7E0FF100C394918310880091DD7
:104730000A80FFF7E1FF00BD00B50246FFF7D3FF97
:10474000C2F30340324908310880091D0A80FFF78F
:10475000D3FF00BD00B50246FFF7C5FF100C2C4982
:1047600020310880091D0A80FFF7C6FF00BD002028
:104770002749103109880907080B25491431098890
:104780000843704700BF2248001D008800F0200049
:104790000028F8D070471E48001D00884FF6F771BA
:1047A00008401B49091D088000BF1948001D0088EA
:1047B00000F008000028F8D0704701460020144A95
:1047C000121D12880A400AB1012000E00020704743
:1047D0000F49091D098881430D4A121D1180704738
:1047E000014600200A4A121D12880A40D0B2084A27
:1047F00012880A4012B108B1012000E00020704781
:104800000349091D09888143014A121D118070471F
:104810000028004010B50120FEF7EEFB0020FEF757
:10482000EBFB10BD2A49086070472949091F086041
:104830007047274984310860704701460020254AA7
:1048400010884FF67F4210400843224A108070477C
:10485000014600201F4A10884FF68072104008431E
:104860001C4A1080704708B500220092194A2C3A61
:104870000092009A02440092009A116008BD08B5A7
:1048800001460020009013482C38009000980844FE
:1048900000900098008808BD0D489C300068C0B2A8
:1048A00070470C480830008840F001000949083181
:1048B000088070470648A0300068C0B270470548BD
:1048C0000830008840F00200024908310880704733
:1048D00004860D422C6C004010B501210807FEF73C
:1048E0007EFB00214FF08050FEF779FB10BD2A4976
:1048F0000862704728490861704701460020274A2E
:10490000106820F0E0000843106070472249A03191
:104910000860704710B502460020204B186820F050
:104920000300104318601E4B1B6843F004031C4C2B
:104930002360012901D130BF00E020BF184B1B6864
:1049400023F00403164C236010BD1448006840F0A7
:104950000400124908600846006840F00200086040
:104960000F48006840F004000D49086000BF00BF18
:1049700030BF704701460020084A52680A400AB119
:10498000012000E0002070470449096841EA8001E5
:10499000024A11607047000000000E4200700040A3
:1049A00010ED00E00FB4044910B503AA029800F01E
:1049B000B1FC10BC5DF814FB040A00200FB41CB558
:1049C0000C0007AA009001D02044401E074B7B44F6
:1049D00069460190069800F066FC002C03D06946F9
:1049E000002000F073FC1CBC5DF814FB05090000FE
:1049F00070B50C460546012A05D02878800600D5FA
:104A0000EA69002302E0012305E05B1C934202D225
:104A1000E05C0028F9D1A869E618C01AA861286AE4
:104A2000184428622846AFF3008004E0D5E901214C
:104A300014F8010B9047B442F8D32846AFF3008036
:104A400070BD00002DE9F04106460024106875296C
:104A5000314616A510D0AFF30080002802DA40429C
:104A600013A507E031688A0701D512A502E04907BE
:104A700004D511A5012401E0AFF3008000210A2232
:104A800006F1240709E0B0FBF2FCB0FBF2F302FBF5
:104A90001C00303078541846491C0028F3D12346B6
:104AA0002A463046BDE8F04100F08FB90000000012
:104AB0002D0000002B000000200000002DE9F05F19
:104AC000894604464FF0000ADFF824B1FB44C0F8E1
:104AD00020A02046E168884700287DD0252806D000
:104AE000D4E901219047206A401C2062F1E70025AB
:104AF0005F462046E16888472028064607DB312EBE
:104B000005D2B81910F8200C08B10543F1E7A80741
:104B100001D525F00405C4F81CA00027C4F818A08E
:104B20002A2E09D0304601F0CBFF38B304EB8708BA
:104B3000303EC8F8186019E059F8041B204604EB11
:104B400087029161E1688847012F064618D1E06924
:104B5000002820DA25F020051DE0D8F8180000EB29
:104B6000800006EB40003038C8F818002046E168A5
:104B70008847064601F0A4FF0028EED1012F0AD095
:104B80002E2E08D12046E16888477F1C0646022F5A
:104B900045F02005C4DBA069002803DA404245F057
:104BA0000105A061E80701D025F01005A6B1A6F126
:104BB0004100192802D8203645F400654A4631469E
:104BC000204625604D46FBF70DFB60B1012807D05C
:104BD000ED1D25F0070000E007E000F1080978E787
:104BE00005F1040975E730467AE7206ABDE8F09FD1
:104BF000682F00000FB400B589B00BA86A4600907A
:104C000003480A9900F0A6FB09B05DF814FB000008
:104C1000B00900202DE9FF5F1D464FF0FF3B914694
:104C20004FF000085F46D5E90146A96901987F1C4D
:104C30008847296A824688470028F6D1BAF1FF3FA3
:104C40000CD0002E24F4C06419DD600614D5BAF12E
:104C50002B0F09D0BAF12D0F0ED103E0584604B046
:104C6000BDE8F09F44F48064A96901987F1C8847DF
:104C7000761E8246002E02DDBAF1300F03D0B9F164
:104C8000000F26D032E0A969761E01987F1C44F4FB
:104C900000748847002E824605DDBAF1780F06D0F1
:104CA000BAF1580F03D0B9F1000F10D01EE0B9F1DE
:104CB000000F02D0B9F1100F18D1A969761E019822
:104CC0007F1C24F4007488478246102002E00820EC
:104CD00000E00A20814609E0A96908FB0908761E60
:104CE00001987F1C44F4007488478246002E05DD3D
:104CF0004946504600F020FB0028EDDAE9690198AA
:104D00008847A00502D46FF00100A8E7E00725D18D
:104D1000600613D5600502D5C8F1000000E04046EA
:104D200029680A1D2A600968220501D5087015E066
:104D3000220701D5088011E008600FE02868011DF6
:104D400029600068210502D580F8008006E021076F
:104D500002D5A0F8008001E0C0F8008038467EE768
:104D600010B5203AC0F00B80B1E81850203AA0E806
:104D70001850B1E81850A0E81850BFF4F5AF5FEA3A
:104D8000027C24BFB1E81850A0E8185044BF18C9ED
:104D900018C0BDE810405FEA827C24BF51F8043B94
:104DA00040F8043B08BF7047D20728BF31F8023BE8
:104DB00048BF11F8012B28BF20F8023B48BF00F87C
:104DC000012B70477047704770472DE9F0470D463B
:104DD00099469246044600F124080168880604D5E5
:104DE000E06921F01001216000E00120A84201DD0E
:104DF000471B00E00027A1697A1902EB0900081A95
:104E0000A0612078C00602D42046AFF300800026BF
:104E100008E0D4E901211AF806009047206A401CF6
:104E2000761C20624E45F4DB2078C0060AD5204669
:104E3000AFF3008006E0D4E9012130209047206ADA
:104E4000401C2062381EA7F10107F4DC07E0D4E91A
:104E5000012118F805009047206A401C2062281E96
:104E6000A5F10105F3DC2046AFF3008020780006B1
:104E700002D50220BDE8F0870120FBE770472DE94D
:104E8000FF4F0C461E464FF0FF378BB0D2E90001B2
:104E9000DDF860800A908A46C1F30A5505B93D469F
:104EA000002108464FF00000BAF1000F00F4400066
:104EB00005DA00EB80004FF4400101EA50004FEAB0
:104EC0009059B9F1010F00DDB9460A9850EA4A003D
:104ED0000ED044F61050A5F2FF3545432F14B8F11B
:104EE000000F1ED07542291E1EDDC9F100021CE014
:104EF000B8F1010F4FF0000001D0302103E0F24380
:104F000005E02154401CB042FBDB3046002200216A
:104F100021540B99C1F80880C1E900200FB0BDE809
:104F2000F08FBD1B6D1CDEE74A4600DA694206A819
:104F300000F0BCFA06AB93E8070003AB83E8070078
:104F400050460A9901F0E0F98DE80700A0F50050FD
:104F50001F3800900398002D0ADD42F21F014A46D7
:104F60000844002303A90390684601F049FC09E0C6
:104F7000A0F500504A461F38002303A90390684655
:104F800001F053FC8DE807000004000C03D04FF043
:104F9000FF30410800E01046B8F1000F03D00022B6
:104FA000009215461EE0751E05D400F0E3F930327C
:104FB00062556D1EF9D5B3460122084302D0002286
:104FC0007F1C04E02078302801D100227F1E002AB7
:104FD000099784D01DE0112D07DA00F0CBF93032AB
:104FE00062556D1C50EA0102F5D1084302D00098C9
:104FF000C8B10EE00021681E05E0235C625C6354CA
:105000002254401E491C8142F7DBAB46A81B401EC0
:105010000990002004F80B000B98099AC0F808804A
:10502000C0E9002B7AE711264FF0000857E72DE979
:10503000F04F88460446D21D22F0070191B0D1E915
:105040000001CDE90A0101F027FD02460B98C00FCF
:1050500001D02D2007E02068810701D52B2002E038
:10506000202101EAC000032A099001D0072A05DBAC
:1050700003464146204600F0C3F90BE12078800644
:1050800001D5E06900E00620B8F1650F814606D041
:10509000B8F1660F18D0B8F1670F70D131E0002079
:1050A000B9F1110F009001DB112301E009F10103B7
:1050B0000AAA01A90CA8FFF7E2FEDDE90C700026A0
:1050C00009F10105834647E001204B4600904FF06F
:1050D00000470AAA01A90CA8FFF7D1FEDDE90DB02F
:1050E0000C995D46002610B909F101000D18B9EBC5
:1050F000050003D4C0F1FF3609F10105A5EB090055
:105100002BE0B9F1010F01DA4FF001090020B9F1EC
:10511000110F0090484601DD112300E003460AAA62
:1051200001A90CA8FFF7ABFEDDE90C704D46002687
:105130008346207800070AD4AB4500DA5D4601A813
:10514000012D04DD411911F8011C302907D04F450C
:1051500002DA17F1040F04DA012082460FE06D1E17
:10516000EEE7002F02DCED1B3E4403E0781CA84272
:1051700000DD7D1CB81B00F1010A4FF000472078CC
:10518000000703D4AA4501DB4FF0FF3A0021B7F135
:10519000004F0DF143088DF8431024D002202B233B
:1051A000002F01DA7F422D230A21021EA0F1010007
:1051B00000DC5FB197FBF1FC97FBF1F201FB1C7C7B
:1051C00017460CF1300C08F801CDEEE7A8F101000C
:1051D00003702188090501D5452100E06521A0F172
:1051E000010800F8011C09980FA9A1EB0807FF1D91
:1051F00000B10120411901EBEA70A1693844081A95
:10520000401EA0612078C00602D42046AFF3008083
:10521000099828B1D4E901219047206A401C2062F6
:105220002078C00622D52046AFF300801EE0002E75
:1052300004DBB34502DD01A8805D00E03020D4E945
:1052400001219047206A401C2062761CAAF10100CF
:105250005FEA000A0AD100F089F8C0680168405C82
:10526000D4E901219047206A401C2062281EA5F144
:105270000105DCDC07E0D4E9012118F8010B9047B7
:10528000206A401C2062381EA7F10107F3DC20468B
:10529000AFF30080032011B041E6000001694A1C11
:1052A00002610878704700B58FB0CDE90131002167
:1052B000059105497944CDE9031011466846FFF789
:1052C000FDFB0FB000BD0000E5FFFFFF0A6802F81C
:1052D000010B0A607047D1E900239A4202D2531CA5
:1052E0000B601070704710B5436913B1AFF30080C5
:1052F00001E0FFF77DFB012010BD127800F12401D1
:105300000A7000224A700122EDE711684FF0FF3267
:10531000E9E70000074B70B50D467B44FFF7C3FF7C
:105320000446284600F058F910B14FF0FF3070BD28
:10533000204670BD0BBEFFFF3A2800D2303820F067
:105340002002412A01D3A2F13700884201D34FF055
:10535000FF307047034B7B449361034B7B44D36125
:1053600000F094B8EFBDFFFF330200000048704723
:10537000CC0A002030B5B0F10A024FEA900E71F16C
:1053800000034EEA817EB0EB0E0061EB91014FEA23
:10539000101E4EEA017E10EB0E0041EB11114FEA98
:1053A000102E4EEA016E10EB0E0041EB11214FEA78
:1053B000104E4EEA014E10EB0E0041EB1141401829
:1053C00041F100014FEAD00040EA41704FEAD101BB
:1053D00010EB80054FEA810444EA907444EB010429
:1053E0006D1944EB0404521BA3414FF0000348BF66
:1053F0000A3200D530BD401C41F1000130BD000033
:105400002DE9F0411F46044603260168072A01F4EE
:10541000006004DB08B116A505E016A503E008B19D
:1054200015A500E015A521F010002060A069C01EA0
:10543000A0610FB1401EA0612046AFF300804FB1C4
:10544000D4E9012138469047206A401C2062C01CE4
:10545000206206E0206AFAE7D4E9012115F8010B81
:105460009047761EF8D22046AFF30080BDE8F08169
:105470004E414E006E616E00494E4600696E6600F8
:10548000026811441378016018467047D1600549DD
:105490007944516104497944116200211161114636
:1054A00000F0C8B9EDFFFFFF870300002DE9F047CA
:1054B000814616468AB0354878440DC88DE80D00FF
:1054C00032487844801C03AC0DC884E80D0041F6D6
:1054D0009B300844372190FBF1F290FBF1F5A5F1E8
:1054E000800501FB12041B3C02D56442012000E050
:1054F0000020DFF898A080460027FA44AAF1BE0AEF
:105500000EE0E0070AD03246684607EB4701012368
:105510000AEB810101F089F98DE8070064107F1C16
:10552000002CEED1194F7F44AE3F19E0E80715D0AB
:1055300007EB04100DF1180A90E80E008AE80E003F
:10554000C068F04201D1981908903246012306A99B
:1055500003A801F06AF903AB83E807006D10641C2F
:10556000002DE3D14FF0010332466946B8F1000F38
:1055700003A802D001F044F901E001F056F9C9E9AD
:105580000001C9F808200AB0BDE8F0870C26000029
:10559000704710B54FF0FF34C1688A020FD5036B16
:1055A00042689A420BD1014690F82520104600F03F
:1055B0001FFB401C01D1204610BD002010BD11F082
:1055C000C00FF8D1026941689142F4D90268491EBE
:1055D000521CC0E90021F0E7007B00F0800070471A
:1055E00010B54248542100F0D3FB4148542100F04B
:1055F000CFFB4048542100F0CBFB3F493B483C4A9D
:105600003F4B08603D490A603A491960531C0365E5
:10561000481C1065012008653B48344A39A178448C
:1056200000F00AFB20B9384878440A3800F0A9FB9A
:1056300037482F4A35A1784400F0FEFA20B93448A3
:1056400078440A3800F09DFB32482A4A2FA178445A
:1056500000F0F2FA20B92F4878440A3800F091FBA4
:1056600040232248DC000021224600F09DFA20B1B0
:1056700025487844543800F084FB1D4822464023D6
:10568000002100F091FA20B121487844543800F00C
:1056900078FB184822461023002100F085FA0028E4
:1056A00006D01C487844BDE81040563800F069BB6D
:1056B00010BD104870B5006D20F001040B4800F0DB
:1056C00031FB0B4800F02EFB0A4800F02BFB09E0F1
:1056D000206D20F00105204600F024FB204600F05C
:1056E00078F82C46002CF3D170BD0000B0090020E2
:1056F000040A0020580A002044080020480800201E
:105700004C08002072000000BE240000770000005A
:10571000AA240000962400000EB5CDE9000100F097
:1057200037FD029069460120ABBE0EBD08B5694643
:1057300000900220ABBE08BD1FB58DE8070069468A
:105740000520ABBE04B010BD1FB58DE80F00694643
:105750000620ABBEF6E708B5694600900920ABBE4F
:1057600008BD1CB5CDE9000169460A20ABBE1CBDD1
:10577000704708B5694600900C20ABBE08BD00001C
:1057800000487047AC0A00207546FFF7F9FFAE46A7
:1057900005006946534620F00700854618B020B53D
:1057A000FDF75AF8BDE820404FF000064FF0000723
:1057B0004FF000084FF0000B21F00701AC46ACE8B9
:1057C000C009ACE8C009ACE8C009ACE8C0098D4626
:1057D000704770B50446051F00F04CFB0068002CB4
:1057E00014BF446870BD002C18BFAC423CBF2046BB
:1057F0006468F8D301680A18AA4218BF456003D14B
:105800002A6805461144016028684119A1421CBF5D
:105810006C6070BD6168696021680844286070BD73
:1058200010B5044600F01EFB0068005D00F00100AA
:1058300010BD00002DE9F34F4FF0000A0C4656460C
:105840008DB001200C9001F10C000B9062690B9857
:1058500001219047051E2DD0252D2CD0216A884787
:10586000C0B162690B9801219047216A88470028DE
:10587000F7D16269411E0B98904700E0761CA16940
:105880000D988847216A88470028F7D1E1690D986B
:105890008847DBE7A1690D988847A842074601D1F0
:1058A000761CD3E7E1690D9888477F1C02D1BAF1D5
:1058B000000F6FD06CE162690B9800273D463946B6
:1058C00090472A2804D162690B980121904701254D
:1058D000DFF8D08262690B9801219047A0F1300176
:1058E0000A290AD24745E5DC07EB870100EB4107AF
:1058F000303FDFD445F01005ECE7E90601D46FF046
:1059000000476C280AD04C2814D0682815D06A2883
:105910000DD074281CD07A281AD01DE062690B982B
:10592000012190476C2802D045F0040514E045F0B1
:1059300002050DE045F020050AE062690B9801219F
:105940009047682802D045F0080505E045F4006559
:1059500062690B9801219047C4E9015765283DD041
:1059600019DC58287AD00CDC452837D004DC2528EF
:1059700026D041289ED131E046282FD0472899D102
:105980002CE05B2877D0612828D063287CD064285D
:1059900023D15AE0F7E06F2848D008DC66281DD0F4
:1059A00067281BD0692821D06E2816D127E07028DF
:1059B00045D0732868D0752847D078280DD14DE0A0
:1059C000A1690D988847252805463FF469AFE1692C
:1059D0000D9888476D1C3FF46AAFD9E00D992346B6
:1059E0006A466FF00100AFF30080C6E045F040006A
:1059F00023464FF000026060A80736D43EE0E80777
:105A00007FF447AF2068011D21600068290501D59A
:105A100006701BE7290701D5068017E7A90703D5FC
:105A2000F117C0E9006111E706600FE745F040009B
:105A300023464FF008026060A80716D41EE040F627
:105A40000E0125EA0100606016E045F040002346A3
:105A50004FF00A026060A80707D40FE045F040004D
:105A60006060A80708D5234610220D996FF0010049
:105A7000AFF3008081E007E0102223460D996FF01C
:105A80000100FFF7C7F878E04FF0000963284F46A0
:105A9000C8464B46CB4602D05B2807D039E0207978
:105AA000C00601D40120A060012732E06269D4F869
:105AB0000CB00B98012190475E2807D14FF00109E7
:105AC00049466269D4F80CB00B989047216939B9FE
:105AD00000210A4603AB43F82120491C0829FADBC0
